:100000000C943B020C9482020C9482020C948202A7
:100010000C9482020C9482020C9482020C94820250
:100020000C9482020C9482020C942C0D0C94680C9B
:100030000C9407190C9482020C9482020C94820294
:100040000C9482020C9482020C9482020C94820220
:100050000C9482020C94030F0C9482020C94820282
:100060000C9482020C9482020C9482020C94820200
:100070000C9482020C9482020C9482020C948202F0
:100080000C9482020C9482020C9482020C948202E0
:100090000C9482020C9482020C9482020C948202D0
:1000A0000C9482020C9482020C948202C406C40650
:1000B000FF06FF0659077707810881088207F607C0
:1000C000070807087C0AA30A4A0CA30A4A0CEF0A8D
:1000D000120B4A0C070C170CBE17C117E817F517BF
:1000E000FD171D18B518B518B518B518B51820188E
:1000F000221827184C186E187118741896180C1DB1
:100100000C1D1F1D1F1D151D1F1D1F1D1F1D0C1D3F
:100110000C1D1A1D1F1D1F1D1A1D000000000000D0
:1001200000000000000000000000000000000000CF
:1001300000000000000000000000000000007E0F32
:1001400000D4FFFFFFC7000000780000000000009F
:1001500000002A2B28000000000000000000000022
:10016000000000000029000000002C1E3420212285
:1001700024342627252E362D3738271E1F202122EE
:10018000232425263333362E37381F040506070867
:10019000090A0B0C0D0E0F10111213141516171857
:1001A000191A1B1C1D2F3130232D35040506070895
:1001B000090A0B0C0D0E0F10111213141516171837
:1001C000191A1B1C1D2F3130354C05010902A101E4
:1001D00085020901A1000509190129081500250159
:1001E0009508750181020501093009311581257FC6
:1001F00095027508810609381581257F95017508D6
:100200008106050C0A38021581257F950175088144
:1002100006C0C005010980A101850319012AB700A4
:10022000150126B700950175108100C0050C090164
:10023000A101850419012AA002150126A002950139
:1002400075108100C005010906A101850505071982
:10025000E029E715002501950875018102050719B8
:100260000029EF1500250195F07501810205081997
:10027000012905950575019102950175039101C04C
:100280000660FF0961A1010962150026FF009520A3
:10029000750881020963150026FF009520750891F5
:1002A00002C005010906A101050719E029E71500AB
:1002B00025019508750181029501750881010507E1
:1002C000190029FF150026FF009506750881000515
:1002D000081901290595057501910295017503918C
:1002E00001C009025B00030100A0FA09040000013B
:1002F00003010100092111010001224000070581CD
:100300000308000A0904010002030000000921118A
:1003100001000122220007058203200001070503D6
:10032000032000010904020001030000000921115B
:1003300001000122B6000705840320000A12010013
:1003400002000000086C74010002000102000118A4
:10035000036B006E00750063006B006C0065002D80
:100360000070006100640000001603740069006CF6
:100370000065006900730073006E00650072000084
:10038000000403090429001E001F002000210000B2
:10039000002B0014001A00080015000000E1000402
:1003A000001600070009000A00E0001C001B000600
:1003B000001900050037000000E20038002C003171
:1003C0000029001E001F002000210000002B001447
:1003D000001A00080015000000E1000400160007E4
:1003E0000009000A00E0001C001B000600190005BF
:1003F0000037000000E20038002C00310029001E08
:10040000001F002000210000002B0014001A00082B
:100410000015000000E10004001600070009000AB2
:1004200000E0001C001B000600190005003700005A
:1004300000E20038002C00310029001E001F0020BF
:1004400000210000002B0014001A00080015000015
:1004500000E10004001600070009000A00E0001C8B
:10046000001B0006001900050037000000E20038FC
:10047000002C0031000011241FBECFEFDAE0DEBFF8
:10048000CDBF04B603FE27C08091270290912802B9
:10049000A0912902B0912A028730904BA740B04B1F
:1004A000D1F4109227021092280210922902109281
:1004B0002A0214BE84B7877F84BF0FB6F894A8952C
:1004C00080916000886180936000109260000FBE90
:1004D000E0E0F8E3099511E0A0E0B1E0E8E3FEE335
:1004E00002C005900D92A635B107D9F722E0A6E526
:1004F000B1E001C01D92A732B207E1F70E942315B7
:100500000C941A1F0C9400001F93CF93DF93CDB768
:10051000DEB767970FB6F894DEBF0FBECDBF4B8B2B
:100520005C8B6D8B7E8B8F8B61111092EC0186E062
:100530009E01235F3F4FD901E82F1D92EA95E9F70D
:1005400095E0FE017396D90101900D929A95E1F71D
:100550009C894E895F897B897D879E876F87598BB0
:10056000488BF901DE01179601900D928A95E1F70B
:10057000CE0107960E94821381113EC086E0FE01E3
:100580003796DE01119601900D928A95E1F7FF8171
:10059000E8856A857B856115710531F0EF3F31F49F
:1005A00081E0FF3F19F403C081E001C080E080FDDD
:1005B00023C02091B80130E0C901019687709927C6
:1005C0004091E90150E08417950779F1F983EA83B6
:1005D0007D836C8396E0929FD001939FB00D112490
:1005E000A754BE4FFE01319601900D929A95E1F706
:1005F0008093B8010E94FF1216E08091E90190916A
:10060000B8018917F9F0189FC001112487549E4F33
:100610000E9482138823B1F08091E90190E0019655
:10062000877099278093E901E8CF0E94231D1092DB
:10063000B8011092E901E2EBF1E086E0DF011D92E2
:100640008A95E9F767960FB6F894DEBF0FBECDBF67
:10065000DF91CF911F9108953F924F925F926F92D9
:100660007F928F929F92AF92BF92CF92DF92EF9242
:10067000FF920F931F93CF93DF93CDB7DEB72997E8
:100680000FB6F894DEBF0FBECDBFFC018081918113
:1006900023813481232B31F09F3F31F491E08F3F50
:1006A00019F403C091E001C090E090FD67C57F019F
:1006B00085E0DE01119601900D928A95E1F7F70130
:1006C000228189819A81222349F00E94501C182F8F
:1006D000682F89819A810E94AC1C03C00E947F1CF4
:1006E000182F69817A81812F0E94A21A8C01F7014B
:1006F0008281882309F4F2C0980122513F452031BC
:10070000310508F019C18FEF93E00E94961E811108
:10071000EFC0025137E1832E99249394002379F09E
:100720008114F4E09F0609F4E3C0C4010E94961E00
:10073000811101C001502FEF821A920AEFCF1E8261
:100740001F8218861986442443942AE0322E84019D
:100750000F5F1F4FC4010E94961E8E831F82882345
:1007600009F4C6C09FEF980F933060F48F834E82D8
:1007700032E0830E911CC8010E94961E8887811169
:1007800002C0B6C048018E010A5F1F4FF8012081E8
:100790002223E9F2213009F04CC08181813049F4F3
:1007A0006801F2E0CF0ED11CF80182810E94781E10
:1007B0000AC0823051F46801F2E0CF0ED11CF8017A
:1007C00082810E94B41D860186C0833049F468018D
:1007D000F2E0CF0ED11CF80182810E944D1DF3CFB3
:1007E000843019F00F5F1F4F76C0F80122810E5F31
:1007F0001F4F80E090E030E0205331092A3031056E
:1008000068F4389EA001399E500D1124C901840F4F
:10081000951F0F5F1F4FF8012081EDCF009709F45E
:100820005AC0EFE9FFE03197F1F700C000000197EF
:10083000F5CFE22FF0E0E65BFE4F5490822F8695D5
:100840008695869590E0FC01E65CFE4F64902770EB
:10085000712C022E02C0759467940A94E2F7F1E0BD
:100860006F227724FC01E65DFE4FA490B12C022E8E
:1008700002C0B594A7940A94E2F731E0A322BB2406
:10088000FC01E65EFE4FC490D12C02C0D594C79403
:100890002A95E2F781E0C822DD246114710419F081
:1008A00081EE0E94B41DA114B10419F086EE0E94DD
:1008B000B41D852D0E94781EAB2819F086EE0E948B
:1008C0004D1D672819F081EE0E944D1DCD2819F0AD
:1008D0008CE20E94781E0F5F1F4F58CF00313FE51A
:1008E000130709F042C481E00E94DC1C0E948B09BE
:1008F0008091EA01877009F441C4F701828188235D
:1009000009F43CC482E029960FB6F894DEBF0FBE0E
:10091000CDBFDF91CF911F910F91FF90EF90DF90AE
:10092000CF90BF90AF909F908F907F906F905F908F
:100930004F903F900C94E2120031FFE51F0711F435
:1009400081E005C001312FE5120721F482E00E9409
:10095000E81CCCCF033FFCE51F0799F406E221EE2B
:1009600040EE63EF7CE509C0073DECE51E0711F59D
:1009700006E221EE41EE67ED7CE5C7010E94C51954
:10098000B7CF043F2CE5120708F03FC1083D3CE516
:10099000130731F407E225EE45EE68ED7CE5EDCF77
:1009A000093D9CE5190701F708E221E045EE69EDF4
:1009B0007CE5E3CF882309F45DC110921302023075
:1009C0009CE5190708F440C10631ECE51E0730F03C
:1009D000C8018A5F9C45099708F036C10E94011240
:1009E00090935E0180935D010031FCE51F0709F4DF
:1009F000C3C008F041C008303CE5130709F49AC0B1
:100A0000F0F404309CE5190709F487C068F402305B
:100A1000FCE51F0709F477C003301C4509F0E5C069
:100A200080915D01826076C006303CE5130709F4D1
:100A30006EC008F07BC080915D0188606BC00C3097
:100A40009CE5190709F485C068F40A30FCE51F0726
:100A500009F474C008F079C00E94231D80915D01E3
:100A6000806858C00E303CE5130709F476C008F0E2
:100A70007FC080915D018BC00B3F9CE5190709F495
:100A80004FC018F50331FCE51F0709F47DC078F469
:100A900001313CE5130709F473C002311C4509F02C
:100AA000A4C00E94231D80915D018F7733C0053162
:100AB0009CE5190709F472C008F486C00A3F1C457A
:100AC00009F093C080915E013EC00F3F2CE51207F4
:100AD00009F45FC058F40D3F8CE5180709F444C0D1
:100AE00008F43FC080915E0182602DC00130EDE5C9
:100AF0001E0709F475C008F45DC002301D4509F0F9
:100B000074C060E06EC080915D01816003C080911F
:100B10005D01806180935D0168C080915D0111C0BD
:100B200080915E01826080935E015FC080915D0173
:100B30008062F0CF80915D018064ECCF80915D0197
:100B400088608460E7CF8160EECF80915D018E7F09
:100B5000E1CF80915D018D7FDDCF80915D01877F49
:100B6000D9CF80915E0118C080915E018D7FDBCF6F
:100B700080915D018F7ECECF80915D018F7DCACF48
:100B800080915D018F7BC6CF80915D01877F8B7FD8
:100B9000C1CF80915E018D7F8E7FC5CF80915D0139
:100BA00082FB222720F991E0922790FB82F990FBAB
:100BB00083F9B0CF80915E01982F909591708E7FD0
:100BC000892B90FB81F9AFCF0E94231D80915D019D
:100BD00087FB222720F991E0922790FB87F99ACF93
:100BE00061E08EE090E00E94A41E60915D01109192
:100BF0005E0184E090E00E94A41E612F82E290E0FA
:100C00000E94A41E0E94231D73CE053FFCE51F0712
:100C100031F406E221EE42EE65EF7CE5AECE053F13
:100C20002CE5120730F407E225EE44EE64EF7CE594
:100C3000A4CE063F3CE5130709F0BCCE07E225EE43
:100C400046EE66EF7CE599CE06318CE5180711F586
:100C50008091ED018A7A91E009F490E09093580137
:100C6000882311F065E301C069E282E991E00E9406
:100C700058190DC006311C45F1F5809158018823A3
:100C800009F47AC265E382E991E00E9430190E947A
:100C900082122ECE0A353DE5130741F150F40115BD
:100CA0009CE51907A9F00E3D1C4529F50E9412127A
:100CB0001FCE0B35FDE51F07D9F00C351D45D9F4C6
:100CC00080915E0182FB882780F991E0892711C01D
:100CD0000E94231D3FEF84E39CE031508040904010
:100CE000E1F700C000000E94F20E02CE81E001C0D8
:100CF00080E00E94C812F70182810081118188235F
:100D000049F0C8010E94501CD82E682FC8010E94CB
:100D1000AC1C04C0C8010E947F1CD82EB8018D2DC8
:100D20000E94A21A0E946710B82E192F982EF70160
:100D30000281A580A2949FE0A9228091EA01877098
:100D400099F0002389F0812F807F803421F080E2A8
:100D50008B0D883048F082E00E94E2128091EA0117
:100D60008770DD24D3948111D12CC12EC2948FE0E1
:100D7000C8228C2D90E08C30910508F0C2C1FC0196
:100D8000EA5AFF4F0C94EC1E812F807F1F7088233E
:100D900011F01295107F0023B9F0112309F49DC1C1
:100DA00080E28B0D883010F0911006C08091ED012B
:100DB000182B1093ED0105C08091EC01182B1093B6
:100DC000EC010E94821289C18B2D0E944D1D1123BE
:100DD00009F497C180E28B0D1095883010F09110C6
:100DE00006C08091ED0118231093ED0105C080919C
:100DF000EC0118231093EC010E94821282C1812F12
:100E0000807F1F70803211F01295107F8B2D9920FA
:100E100021F0F1E09F1611F130C00023B1F0AA20BB
:100E200081F021E0A2120DC080915E0182FD69C1B6
:100E30008091EE01182B181709F463C11093EE018D
:100E400060C18091EE01812B10C0AA2021F031E019
:100E5000A31609F456C10E947C1227C0002341F05A
:100E600085E08A1508F44DC1812F0E94431D49C1B8
:100E700094E09A1508F445C118C0002349F0AA204F
:100E800099F3F701858180FF28C18F708583ECCFAE
:100E9000AA2059F0893309F031C1FFEF27EE33E082
:100EA000F15020403040E1F727C1812F0E94381DCA
:100EB00028C1812F86958695837019F0813061F065
:100EC00020C1002321F08B2D912F937002C080E070
:100ED00090E00E94A3191BC1002321F08B2D912FBC
:100EE000937002C080E090E00E948D1910C18B2D9C
:100EF000002319F00E94D81B02C00E941F1B0E94F1
:100F0000F51A05C1812F8370A9F50111FEC04B2D83
:100F1000429546954770440F440F8B2D8F7090E09B
:100F20009C01042E01C0220F0A94EAF7B4FE08C007
:100F30008FE090E001C0880F4A95EAF7809501C0E4
:100F400080E0169516951370123069F088F4909130
:100F5000EF01113019F0822B892302C0922B892BCB
:100F60000E94F31CD2C0822B9091EF018927F8CF09
:100F7000822BF6CF002319F0812F817001C0869556
:100F8000882309F4C2C04B2D429546954770440F03
:100F9000440F8B2D8F7090E09C01042E01C0220F16
:100FA0000A94EAF7B4FE08C08FE090E001C0880F11
:100FB0004A95EAF7809501C080E016951695137062
:100FC000123059F078F490919101113019F0822B80
:100FD000892309C0922B892B06C0822B9091910105
:100FE000892701C0822B0E94D81C8FC01F7000234C
:100FF00039F0812F0E94E81C8B2D0E94431D85C073
:101000008B2D0E94381D812F0E94DC1C7EC08B2DF1
:1010100092EF991659F1991538F0E0EF9E1659F0B4
:10102000F1EF9F16F1F055C023EF921631F134EF36
:10103000931681F14EC0002379F084E08A1508F4FC
:1010400060C01F7181E090E001C0880F1A95EAF737
:101050009091910189271BC095E09A1508F451C021
:10106000F0CF002329F0812F8F7126C00023D9F300
:10107000812F8F710E94DC1C44C0002339F01F7146
:1010800081E001C0880F1A95EAF701C080E00E9454
:10109000D81C37C0002399F01F71812F0E94E81CD3
:1010A00080915E0182FD07C0E8E01E9FC00111240F
:1010B00083608093EA01812F0E94E81C22C081E0B6
:1010C0000E94E212F1E0FA15E0F482E00E94E212DE
:1010D00018C0002331F0AA2031F28B2D0E94B41DDC
:1010E00010C0AA2029F2893349F42FEF37EE83E0AC
:1010F000215030408040E1F700C000008B2D0E945D
:101100004D1D88EF8C0D843010F40E94B919DD203C
:10111000A9F18091EA0180FD31C0F7011282859525
:10112000859585950E94E81CC7010E942C0380913B
:10113000EA0185958595859529960FB6F894DEBFC9
:101140000FBECDBFDF91CF911F910F91FF90EF9018
:10115000DF90CF90BF90AF909F908F907F906F90D7
:101160005F904F903F900C94DC1C01319FE5190774
:1011700009F0F0CB82E0B8CB69E285CD29960FB6B5
:10118000F894DEBF0FBECDBFDF91CF911F910F91BD
:10119000FF90EF90DF90CF90BF90AF909F908F9097
:1011A0007F906F905F904F903F900895809189015C
:1011B00087FF11C08091E80082FD05C08091870102
:1011C0008111F8CF11C08091E8008B770BC080911E
:1011D0008701882349F08091E80080FFF8CF809153
:1011E000E8008E778093E8000895982F973068F58F
:1011F0009093E900981739F07091EC002091ED0080
:101200005091F00003C0242F762F50E021FD02C042
:101210009F5FECCF3091EB003E7F3093EB0030913D
:10122000ED003D7F3093ED003091EB003160309365
:10123000EB007093EC002093ED005093F0002091B0
:10124000EE0027FDE5CF80E008958F708093E900E0
:1012500081E0089520918F01309190012617370782
:1012600048F06115710539F42091E8002E7720933C
:10127000E80001C0B901FC0120E06115710579F1B8
:10128000809187018823F1F18530F1F18091E800A8
:1012900083FD3CC08091E80082FD2EC08091E80073
:1012A00080FFEBCF2091F3008091F20090E0922B31
:1012B0006115710551F08830910538F42191209322
:1012C000F100615071090196F3CF21E0089709F010
:1012D00020E08091E8008E778093E800CECF211146
:1012E000CFCF0AC080918701882361F0853061F0FB
:1012F0008091E80083FD0AC08091E80082FFF2CF70
:1013000080E0089582E0089583E0089581E00895E3
:1013100080916401089580919101982F9670963084
:1013200011F4886001C0877F0C94D81C1F93CF9361
:10133000DF93CDB7DEB7AA970FB6F894DEBF0FBE26
:10134000CDBFE9E8F1E08091F100819341E0E1391E
:10135000F407C9F780918A01833009F462C030F440
:10136000813071F0823009F49CC0B3C08A3009F436
:1013700088C08B3009F46DC0893009F0AAC020C044
:1013800080918901813A09F0A4C08091E800877FAB
:101390008093E80080918D0190918E01892B21F43A
:1013A00060E285E691E003C060E080E090E070E0FC
:1013B0000E942A098091E8008B778093E80089C019
:1013C00080918901813209F084C080918D019091D2
:1013D0008E01009719F0029709F07BC08091E80018
:1013E000877F8093E8008091E80082FD05C08091AE
:1013F00087018111F8CF6DC02091F3008091F20038
:1014000090E0922B029729F48091F1008B7F81303C
:1014100021F48091F100809364018091E8008B7742
:1014200054C080918901813A09F053C080918D01A7
:1014300090918E01892B09F04CC08091E800877F44
:101440008093E8008091E80080FFFCCF809100014C
:1014500037C0809189018132E1F580918D019091B1
:101460008E01892BB1F58091E800877F8093E80099
:101470000E94D60880918B01809300010E94231D59
:1014800028C080918901813221F58091E800877F11
:101490008093E8000E94D60880918C0180936301BC
:1014A00018C080918901813AA1F48091E800877F7A
:1014B0008093E8008091E80080FFFCCF8091630179
:1014C0008093F1008091E8008E778093E8000E947D
:1014D000D6088091E80083FFDDC180918901909159
:1014E0008A01492F50E04A30510508F0D3C1FA0172
:1014F000EE59FF4F0C94EC1E803821F0823809F031
:10150000C9C108C08091850190918601992389F015
:1015100082600FC080918D018F70873008F0BAC152
:101520008093E9008091EB0085FB882780F9109279
:10153000E9009091E800977F9093E8008093F10094
:101540001092F10070C1282F2D7F09F0A3C18823CC
:1015500019F0823061F09EC180918B01813009F0D9
:1015600099C1933009F080E0809386012EC080916C
:101570008B0181112AC080918D018F702FEF280F70
:10158000263008F087C18093E9002091EB0020FF0E
:101590001CC0933021F48091EB00806214C09091C4
:1015A000EB0090619093EB0021E030E0A90102C0D4
:1015B000440F551F8A95E2F74093EA001092EA0023
:1015C0008091EB0088608093EB001092E90080919D
:1015D000E800877F8093E8000E94D6085BC18111F4
:1015E00059C110918B011F778091E3008078812B86
:1015F0008093E3008091E800877F8093E8000E9459
:10160000D6088091E80080FFFCCF8091E3008068DD
:101610008093E300111102C082E001C083E0809357
:10162000870138C18058823008F034C120918B0185
:1016300030918C012C3D53E0350779F583E08A83A6
:101640008AE289834FB7F894DE01139620E03EE0EA
:1016500051E2E32FF0E050935700E49120FF03C0E4
:10166000E295EF703F5FEF708E2F90E0EA3010F060
:10167000C79601C0C0968D939D932F5F243149F783
:101680004FBF8091E800877F8093E8006AE270E0B6
:10169000CE0101960E942A09B4C080918D019091DB
:1016A0008E01432F552743305105A9F068F441308E
:1016B000510509F4FEC04230510509F0EBC08BE53D
:1016C00090E0E2EEF2E04BC04132510529F14232A6
:1016D000510589F1DFC0C901992781309105A1F039
:1016E00058F0029709F0D6C0EFE4F3E0E4918E2FB2
:1016F00090E0EFE4F3E030C0E1E8F3E0E4918E2F16
:1017000090E0E1E8F3E028C0E9E6F3E0E4918E2F11
:1017100090E0E9E6F3E020C08330910508F0BAC01C
:10172000880F991FFC01EC5EFE4F0190F081E02DC7
:1017300089E090E014C08330910508F0ABC0FC0153
:10174000EE0FFF1FE25FFE4F0190F081E02DDC0104
:10175000A55FBE4F8C9190E0009709F49BC020914B
:10176000E800277F2093E80020918F0130919001BD
:101770002817390708F4C90140E0009789F1209142
:101780008701222309F43DC02530D9F12091E800DA
:1017900023FD37C02091E80022FD2FC02091E800F2
:1017A00020FFEBCF4091F3002091F20030E0342B8A
:1017B000009759F02830310540F444914093F100EE
:1017C000319601972F5F3F4FF3CF41E0283031052D
:1017D00009F040E02091E8002E772093E800CDCF7B
:1017E0004111CDCF0AC080918701882351F0853007
:1017F00041F08091E80083FD04C08091E80082FF01
:10180000F2CF8091E8008B778093E80043C0803866
:1018100009F040C08091E800877F8093E8008091C4
:1018200088018093F1008091E8008E77D3CE8111FA
:1018300031C080918B0190918C019927029754F5CA
:101840008091E800877F8093E80010918B011093CE
:1018500088010E94D608111106C08091E30087FD1F
:1018600002C081E001C084E08093870142E061EC26
:1018700081E00E94F50842E261EC84E00E94F508F4
:1018800042E261EC82E00E94F50842E260EC83E013
:101890000E94F5088091E80083FF10C08091E80065
:1018A000877F8093E8008091EB0080628093EB005B
:1018B00005C082E190E0EDE3F3E051CFAA960FB6C8
:1018C000F894DEBF0FBECDBFDF91CF911F91089579
:1018D0001F920F920FB60F9211242F933F934F93A5
:1018E0005F936F937F938F939F93AF93BF93CF93A8
:1018F000DF93EF93FF93C091E900CF708091EC00EC
:10190000D82FD17080FDD0E81092E9008091F000CE
:10191000877F8093F00078940E9496091092E900E6
:101920008091F00088608093F000CD2BCF70C09341
:10193000E900FF91EF91DF91CF91BF91AF919F911E
:101940008F917F916F915F914F913F912F910F9068
:101950000FBE0F901F901895E8EDF0E080818E7F0C
:1019600080831092E2001092DA001092E100A0EE63
:10197000B0E08C9181608C9380818F77808319BCDB
:10198000A7EDB0E08C918E7F8C9380818F7E8083D9
:10199000109262010895CF92DF92EF92FF920F931F
:1019A0001F93CF93DF93C8EDD0E088818F7E88832B
:1019B000E7EDF0E080818160808384E082BF81E098
:1019C0008093620188818E7F888302EE10E0F801A7
:1019D00010821092DA0081EEC82ED12CF60110820E
:1019E00088818F77888388818068888388818F7DCC
:1019F000888319BC10928701109288011092860189
:101A00001092850190EEE92EF12CF70180818B7FF9
:101A1000808388818160888342E060E080E00E946A
:101A2000F508F60180818E7F8083F80180818160D6
:101A30008083808188608083F70180818E7F8083AE
:101A4000888180618883DF91CF911F910F91FF90F2
:101A5000EF90DF90CF9008951F920F920FB60F92E4
:101A600011242F933F934F935F936F937F938F93A3
:101A70009F93AF93BF93EF93FF938091E10082FF19
:101A800009C08091E20082FF05C08091E1008B7F58
:101A90008093E1008091DA0080FF2AC08091D80015
:101AA00080FF26C08091DA008E7F8093DA008091DB
:101AB000D90080FF18C080E189BD82E189BD09B4E9
:101AC00000FEFDCF81E0809387018091620181114A
:101AD0000FC00E94AC0C0E94CB0C8091E20084608D
:101AE0008093E20005C019BC109287011092620138
:101AF0008091E10080FF17C08091E20080FF13C059
:101B00008091E2008E7F8093E2008091E20080610C
:101B10008093E2008091D80080628093D80019BC45
:101B200085E0809387018091E10084FF2EC0809141
:101B3000E20084FF2AC080E189BD82E189BD09B449
:101B400000FEFDCF8091D8008F7D8093D8008091DA
:101B5000E1008F7E8093E1008091E2008F7E809390
:101B6000E2008091E20081608093E2008091880130
:101B7000882311F084E007C08091E30087FD02C054
:101B800081E001C083E0809387018091E10083FFC1
:101B900027C08091E20083FF23C08091E100877F0E
:101BA0008093E10082E08093870110928801809108
:101BB000E1008E7F8093E1008091E2008E7F809330
:101BC000E2008091E20080618093E20042E060E008
:101BD00080E00E94F5088091F00088608093F0001A
:101BE000FF91EF91BF91AF919F918F917F916F91F5
:101BF0005F914F913F912F910F900FBE0F901F90CB
:101C000018952091E4003091E50095E64091EC00B4
:101C1000842F817040FF23C08091E80080FD1DC0AB
:101C200080918701882399F0853099F08091EB00AD
:101C300085FD11C04091E4005091E500241735075F
:101C400029F3915011F09A01E1CF84E0089582E0E8
:101C5000089583E0089581E0089580E0089540911B
:101C6000E80042FFDDCF0895EF92FF920F931F939C
:101C7000CF93DF937C018B010E94010E811119C06B
:101C8000E70101151105A1F08091E80085FD0AC06A
:101C90008091E8008E778093E8000E94010E8823EF
:101CA00081F307C089918093F10001501109E9CFB8
:101CB00080E0DF91CF911F910F91FF90EF900895F9
:101CC00090918701943029F580935F0170936101B1
:101CD000609360019093E9008FEF9091E80081504C
:101CE00095FD06C095ED9A95F1F700008111F5CFAD
:101CF0008091E80085FF0DC040E050E063E070E0B7
:101D00008FE591E00E94340E8091E8008E778093F9
:101D1000E8000895BC0184E00C94600EBC0183E0EF
:101D20000C94600E24E02093E9002FEF3091E8003E
:101D3000215035FD06C035ED3A95F1F7000021112F
:101D4000F5CF2091E80025FF0BC040E050E066E0B1
:101D500070E00E94340E8091E8008E778093E80056
:101D60000895CF93DF9320910001222339F0209131
:101D70005D0127FF03C060E224E002C068E021E0CB
:101D80002093E9002FEF3091E800215035FD06C087
:101D900035ED3A95F1F700002111F5CF2091E800DB
:101DA00025FF1DC0EC0180910001811105C040E0BC
:101DB00050E068E070E003C070E040E050E0CE0129
:101DC0000E94340E8091E8008E778093E80080E2D4
:101DD000FE01A5E6B1E001900D928A95E1F7DF9151
:101DE000CF91089587E797E79093010880930008C3
:101DF0009AE088E10FB6F894A895809360000FBE32
:101E000090936000FFCF78941F920F920FB60F92BD
:101E100011248F939F93AF93BF9380915901909119
:101E20005A01A0915B01B0915C010196A11DB11D09
:101E30008093590190935A01A0935B01B0935C0188
:101E4000BF91AF919F918F910F900FBE0F901F90F8
:101E500018959C014FB7F8948091590190915A01BF
:101E6000A0915B01B0915C014FBF821B930B089561
:101E70002FB7F8948091590190915A01A0915B017C
:101E8000B0915C012FBF089580E0089590915D01AD
:101E900092FF0DC0282F2871283019F4877F8460A5
:101EA00006C0282F2471243011F48B7F886093FFA3
:101EB0000DC0282F2871283119F4877E846106C04F
:101EC000282F2471243111F48B7E886120915E01CA
:101ED00020FF0DC0382F3871383019F4877F8160AA
:101EE00006C0382F3171313011F48E7F886021FFA8
:101EF0000DC0282F2871283119F4877E816106C012
:101F0000282F2171213111F48E7E886194FD877E06
:101F10000895F894E82FE295EF70F0E031A1282FB2
:101F20002F7081E090E001C0880F2A95EAF7982F82
:101F30009095932391A392A1892B82A378940895DD
:101F40009F92AF92BF92CF92DF92EF92FF920F9348
:101F50001F93CF93DF9300D000D01F92CDB7DEB791
:101F6000AE014F5F5F4F7A0185E0FA0111928A95C9
:101F7000E9F70BE411E05A01CC24C394D12CF80109
:101F800080818F3F09F447C0F894E82FE295EF7005
:101F9000F0E021A18F70A60102C0440F551F8A9561
:101FA000E2F7CA01922F982B91A392A180958923E1
:101FB00082A3789400C0E0E5F1E020E030E0912CCD
:101FC00041914F3FB1F0A42FA295AF70B0E0909631
:101FD0008C9190E04F7002C0959587954A95E2F7F5
:101FE00080FD07C08C2D022E01C0880F0A94EAF7ED
:101FF00001C080E0982A2F5F3F4F2630310501F75E
:10200000F80180818F3F11F00E94890FF0EAFA9564
:10201000F1F7F50190820F5F1F4FFFEFAF1ABF0A74
:1020200041E00035140709F0AACF45E050E0B701C0
:1020300083EF91E00E940D1F11E0009709F410E07A
:10204000892B89F085E0F701A3EFB1E001900D92B3
:102050008A95E1F781E08093F2010E94380F909316
:10206000F1018093F0018091F2018823F1F08091D9
:10207000F0019091F1010E94290F0597B0F0809135
:10208000F3018093FF018091F4018093000280911D
:10209000F501809301028091F60180930202809104
:1020A000F701809303021092F201812F0F900F909D
:1020B0000F900F900F90DF91CF911F910F91FF9094
:1020C000EF90DF90CF90BF90AF909F900895CF9307
:1020D000DF938238910569F1B0F48133910509F4F9
:1020E0006FC048F48932910509F465C08A329105C0
:1020F00009F46BC08AC08533910509F457C0893350
:102100009105B9F082C0833E910571F138F4803EAB
:102110009105B1F0823E910511F177C0863E91059F
:10212000B9F1873E9105C9F1843E910509F06DC072
:1021300024C020915D0120FD53C021FD51C065C028
:1021400080915D0180FD46C080915E0180FF48C0A6
:1021500080915D0184FD50C183EE90E04FC180917C
:102160005D0182FF3AC0F4CF80915D0182FD35C0F0
:1021700080915E0180FD34C0EBCF80915E0181FFD4
:1021800035C080915D0184FD37C187EE90E036C196
:1021900080915D0183FF27C0F4CF80915D0183FDB5
:1021A00022C080915E0181FD21C0EBCF80915D0155
:1021B00085FD1FC021C080915D0185FD1DC019C036
:1021C00080915D0186FD1BC01DC080915D0186FD73
:1021D00019C015C089E390E011C182EE90E00EC1F4
:1021E00080EE90E00BC186EE90E008C184EE90E0B6
:1021F00005C189E290E002C185E390E0FFC08AE278
:1022000090E0FCC081E390E0F9C0811531E59307CF
:1022100008F069C0811540E59407F0F09C0174E076
:10222000369527957A95E1F7922F9370482F437052
:1022300021E030E002C0220F331F4A95E2F73C68EC
:10224000392B982F9F709695969540E2949FC001E8
:102250001124822B932BD2C0883E910568F5803ED5
:10226000910508F0CBC0883A9105B8F4853A9105FC
:1022700048F0855AE82FF0E0E65EFE4F808190E05E
:102280009064BCC08130910509F4B3C008F4B4C0B7
:102290008430910508F4B0C0B1C08F3B910508F0BF
:1022A000ABC0885AE82FF0E0EE0FFF1FE35EFE4F51
:1022B000808191819464A2C0811520E2920758F434
:1022C000811531E0930708F099C0803F910508F42B
:1022D00093C0906593C0811540E4940708F48CC0C6
:1022E0009F70906A8BC0811525E5920708F042C067
:1022F000811534E5930728F0982F8827846F906A1A
:102300007DC0811543E59407B0F09C01237033270D
:1023100041E050E002C0440F551F2A95E2F7282FF4
:102320002695269580E2289F90011124CA01822BD0
:10233000932B9A6863C0811522E5920728F4982FA1
:102340008827816F906A5AC09C012370332741E02F
:1023500050E002C0440F551F2A95E2F7282F26951A
:10236000269580E2289F90011124CA01822B932B8D
:102370009C6844C0EC01811539E59307A8F48115E8
:10238000984528F09C2F8827806F906A37C0C11528
:1023900086E5D80788F58C2F0E94460F8F7190E054
:1023A000982F882790622AC081152AE5920790F419
:1023B0008C2F8F700E94460F94E0D695C7959A9502
:1023C000E1F7CF70D0E0DC2FCC27D0699E01282B1D
:1023D000C90114C090568115904270F48D2F8F71F1
:1023E0000E94460F282F2F71CE0199279062922BC1
:1023F00005C081E090E002C080E090E0DF91CF91E5
:102400000895CF9384E090E00E94961EC82F82E248
:1024100090E00E94961E2C2F30E0A901582BCA0193
:10242000CF91089569EE7EEF80E090E00E94C21E99
:1024300060E082E090E00E94A41E60E083E090E013
:102440000E94A41E1092EF0160E084E090E00E94E0
:10245000A41E60E082E290E00E94A41E60E085E09D
:1024600090E00E94A41E60E086E090E00E94A41E1E
:102470006FEF87E090E00E94A41E40E050E0BA01B8
:1024800088E090E00E94B61E60E08DE090E00E943F
:10249000A41E40E050E0BA0188E190E00E94B61E20
:1024A00060E087E190E00E94A41E40E050E0BA01A5
:1024B0008CE190E00E94B61E60E070E080E290E067
:1024C0000E94C21E40E050E0BA0188E190E00E9404
:1024D000B61E80E00E94AF1A0E94CD1A40E050E084
:1024E000BA018FE090E00E94B61E40E050E0BA01D1
:1024F00083E190E00C94B61E8091EE018111109260
:10250000EE0108959091ED018091EC01892B2091CD
:10251000EB01982F922B909392018091EE018823EA
:10252000D9F0892B8093920180910001882331F0AA
:1025300080915D0187FF02C08EE101C086E0E4E981
:10254000F1E090E0815028F021912223D9F39F5FA0
:10255000F9CF91110E947C12E0911602F0911702BE
:102560003097A9F080910001882359F080915D0196
:1025700087FF07C0809192018093930185E080934B
:1025800092010280F381E02D82E991E0099408959F
:10259000CF93C0915E01C2FB992790F9981781F003
:1025A00080FBC2F9C0935E0160915D0184E090E020
:1025B0000E94A41E6C2F82E290E0CF910C94A41E86
:1025C000CF9108952091EA01809582238093EA01BA
:1025D000982F977041F430E0482F082E000C550BCF
:1025E0002417350721F490915E0192FF07C085956D
:1025F000859585950E94DC1C1092EA0108958091D2
:10260000E9019091B801891719F08F5F8770FBCFAE
:1026100008950F931F93CF93DF938091B701829515
:102620008F7009F05DC08091B401882309F458C00F
:102630008091E9011091B8016091B2017091B301EC
:10264000C091B501D091B60191E06F3F09F090E0E3
:10265000292F06E0811709F443C0209721F07F3F1E
:1026600021F030E003C031E001C0322F90E030FDB6
:1026700034C0089FF001099FF00D1124DF01A75419
:10268000BE4F11963C911197371327C03C913613DA
:1026900024C012963C91129731111FC013964D9190
:1026A0005C9114974C1B5D0B483C5105B0F4809134
:1026B000B7018F7080618093B701E254FE4F808133
:1026C0008F708061808382EB91E00E942C03DF9108
:1026D000CF911F910F910C94FF1201968770BACF82
:1026E000DF91CF911F910F910895CF93DF93EC016C
:1026F0000E94501CBE010E94A21A0E946710DF9126
:10270000CF9108959F92AF92BF92CF92DF92EF92B6
:10271000FF920F931F93CF93DF93CDB7DEB76197EF
:102720000FB6F894DEBF0FBECDBF8C0185E0F80177
:10273000DE011D9601900D928A95E1F7F801E28085
:102740009091B2016091B3014091B5015091B601F1
:102750004115510531F06F3F31F481E09F3F19F48D
:1027600003C081E001C080E0F82FF1709F2E80FD52
:102770001AC1F80130812181C380D48082EBA82E58
:1027800081E0B82EF090B401F601E41BF50BFF20B8
:1027900009F4C6C08091B701E83CF10508F091C08A
:1027A000482F407F09F050C0621311C093130FC02F
:1027B000FE2CE1100CC08F7080618093B701C501C1
:1027C0000E942C038091B701F801858329C1CD288F
:1027D00031F02F3F31F481E03F3F19F403C081E035
:1027E00001C080E080FD03C081E08E2502C080E052
:1027F00090E0F82FF170FF2E80FF1CC08091E9015E
:102800004091B80156E0841709F4E8C090E0589F61
:10281000F001599FF00D1124E754FE4F61812613FA
:1028200006C06081631303C06281E61203C0019693
:102830008770E9CFFE2CEE2009F4F2C08091B70139
:1028400081608093B70149C0621306C0931304C02E
:10285000E11002C0F80186C0C8010E94F71C88235D
:1028600051F1EE2041F12091B701822F82958F70B6
:1028700090E0029774F08091B2019091B301988733
:102880008F831986DB86CA862C87CE0107960E9425
:102890002C0386E0F801A2EBB1E001900D928A953D
:1028A000E1F70E9409130AC06217C9F0C8010E942B
:1028B000F71C81111EC0C8010E942C03FF24F39451
:1028C000AFC0482F407F81F782EB91E00E942C033C
:1028D00086E0F50111928A95E9F7F12CA1C09313D6
:1028E000E5CFE110E3CFF8018583C8010E942C03F6
:1028F00054C0EE2001F32091B701822F82958F7092
:1029000090E0029734F28091B2019091B3019A83E2
:1029100089831B82DD82CC822E83CE010196B7CFC4
:10292000E83CF105D0F5FE2CEE2029F2621327C019
:10293000931325C02091B70120FD18C0822F8295E6
:102940008F70482F50E04115510581F0F801258323
:102950004F30510541F08F5F982F9295907F822FD5
:102960008F70892B8583C8010E942C0386E0F801B3
:10297000A2EBB1E001900D928A95E1F751C0C80138
:102980000E94F71C811185CF8091B70181608093EF
:10299000B701C8010E942C0343C086E0F5011192E3
:1029A0008A95E9F73DC0EE2009F485CFC8010E9461
:1029B000F71CF82E882309F47ECF86E0F801A2EBFD
:1029C000B1E001900D928A95E1F78091B20190916A
:1029D000B3010E9475130E94091322C03D872E8700
:1029E0008D859E850E947513292F22952F70223088
:1029F00028F49F7039F0811105C00BC0243028F4F1
:102A00009F7049F4805E883020F0C8010E942C033A
:102A10009F2CF92C05C0F8019581907F99F7F9CF8B
:102A20008F2D61960FB6F894DEBF0FBECDBFDF913C
:102A3000CF911F910F91FF90EF90DF90CF90BF90BB
:102A4000AF909F900895CF93DF93CDB7DEB7AA974D
:102A50000FB6F894DEBF0FBECDBF84B7877F84BFAB
:102A60000FB6F894A895809160008861809360000B
:102A7000109260000FBE90E080E80FB6F89480934B
:102A80006100909361000FBE85B7806885BF85B7F0
:102A9000806885BF84E49FE090935701809356013E
:102AA0000E94AC0C0E94CB0C8091E2008460809369
:102AB000E2007894809187018823A1F01091E900C9
:102AC0001F709091EC00892F817090FD80E8182B89
:102AD0001092E9008091E80083FD0E9496091F7022
:102AE0001093E90082E084BD93E095BD9AEF97BD15
:102AF00080936E000E94DC1A811102C00E94CD1AE0
:102B00000BE411E060E5E62E61E0F62EF80181911C
:102B10008F018F3F11F00E94890FE016F106B1F787
:102B200000E511E0F80181918F018F3F11F00E94C3
:102B3000890FF1E006351F07A9F7E3EFF1E088EF11
:102B400091E0AFEFB1E011921D928E179F07D9F778
:102B500080E090E00E949E1E893E9E4F21F40E94DC
:102B6000DC1A811102C00E94121282E090E00E94E1
:102B7000961E8093F9010E94011290935E0180934A
:102B80005D010E94A00F3FEF46E781E031504040D9
:102B90008040E1F700C000000E94A00F8091FF017B
:102BA00081FF08C06FEF7FEF80E090E00E94C21EBF
:102BB0000E94F20E83E090E00E94961E0E94F31C99
:102BC00081E091E0909317028093160298E1C92E5C
:102BD000D12C20E4422E30E1532E42E1842E50E1EC
:102BE000952E8E010F5F1F4F80918701853009F070
:102BF0003EC080918701853009F035C08091870102
:102C0000843009F110921A020FB6F894A895C09278
:102C100060000FBE4092600083B7817F846083BFF5
:102C200083B7816083BF7894889583B78E7F83BF95
:102C30000FB6F894A8958091600088618093600039
:102C4000109260000FBE80918601882391F20E944D
:102C5000A00FEFEFF1E081918111B1C292E0E43079
:102C6000F907C9F7C6CF0E94231D0E94B9190E9417
:102C7000A00F882359F08FB7F894409159015091D3
:102C80005A0160915B0170915C018FBFAAEFB1E0C6
:102C9000EFEFF1E0E12CF12C3E2D21919D91922757
:102CA00021F180E0BB24B394492F4B21D1F089A3BB
:102CB0003AA32B2181E009F480E08BA30E94380F16
:102CC0008160782F9DA38CA349A15AA16BA18DA1EE
:102CD0000E948402F701E650FE4F8081B826B08240
:102CE0001BC08F5FBB0C8630F9F62FEFE21AF20A99
:102CF00035E0E316F10481F68FEF8EA38FA318A6BB
:102D00000E94380F8160782F9AA789A74EA15FA1F2
:102D100068A58AA50E94840286E0EBE0F2E0D80173
:102D200001900D928A95E1F7A0900D02B0900E02ED
:102D3000E0900F02F090100210920D0210920E021D
:102D400010920F0210921002A11003C0BB2009F4D0
:102D500051C08091090290910A020E94290F9C01A2
:102D600090910502992309F448C22333310508F4F0
:102D700041C09F3F19F09F5F90930502AA2061F028
:102D80000E94B81B1A1414F491E001C09FEF899FB0
:102D9000802D112480930D02BB2061F00E94B81B8E
:102DA0001B1414F491E001C09FEF899F802D112422
:102DB00080930E0230910D023323E1F020910E0238
:102DC0002223C1F045EB3403C0011124992319F0EB
:102DD00090930D0203C081E080930D0235EB230335
:102DE000C0011124992319F090930E0203C081E0D1
:102DF00080930E02E11003C0FF2009F451C08091BE
:102E00000702909108020E94290F9C0190910402F0
:102E1000992309F4F7C12536310508F441C09F3FD5
:102E200019F09F5F90930402EE2061F00E94961BC0
:102E30001E1414F491E001C09FEF899F802D11248E
:102E400080930F02FF2061F00E94961B1F1414F460
:102E500091E001C09FEF899F802D11248093100283
:102E600030910F023323E1F0209110022223C1F0B0
:102E700045EB3403C0011124992319F090930F02FC
:102E800003C081E080930F0235EB2303C0011124BE
:102E9000992319F09093100203C081E080931002EF
:102EA00080910D0281110BC080910E02811107C02B
:102EB00080910F02811103C08091100281110E9444
:102EC000F51AAB82BC82ED82FE8286E0F801ABE0AF
:102ED000B2E001900D928A95E1F70E94B9199091A4
:102EE000F801891721F00E94B9198093F8018091A7
:102EF0008701843009F078CE83E08093E9008091E7
:102F0000E80082FF71CE8091E80085FF21C00E9419
:102F1000010E81111BC080E2E82EF12C580109C07E
:102F20008091F100F50181935F01F1E0EF1AF10862
:102F300069F08091E80085FDF3CF8091E8008B7700
:102F40008093E8000E94010E882399F391E001C06C
:102F500090E08091E8008B778093E800992309F452
:102F600043CEE9818E2F90E0FC013197E331F105EA
:102F700008F0FBC0E459FF4F0C94EC1E1A8289E064
:102F800064C08A81823009F430C1833089F0813095
:102F900009F0EBC02FB7F8948091590190915A0134
:102FA000A0915B01B0915C012FBFBB83AC8322C0B9
:102FB0008091FF018B83809100028C8380910102BC
:102FC0008D83809102028E83809103028F83CFC014
:102FD0008A81823009F0C9C06B817C818D819E819C
:102FE0000E94F21E86E290E025C04C816B818A81AE
:102FF0000E947C1A9D838E83BAC0AD80BE80BA24A5
:10300000AB24BA248C81EB809A812CE0E29E700183
:1030100011243CE3939FE00CF11C1124E80EF11CF9
:10302000E80EF11C6B2DC70187960E94A41E6A2D25
:10303000C70188960E94A41E9AC00E94481A97C091
:103040009A8295C082E08A8389EE8B8390C0EA8061
:10305000FB80FE24EF24FE24AC80B12C3801C70194
:10306000895E9E4F9301201B310B2A153B0508F00A
:103070007EC049EEE41642E0F40628F40E94961E53
:10308000F301848302C0F3011482FFEFEF1AFF0AF9
:103090002FEF621A720AE3CFEA80FB80FE24EF244E
:1030A000FE24AC80B12C3801C701895E9E4F93018C
:1030B000201B310B2A153B0508F059C039EEE316E9
:1030C00032E0F30620F4F30164810E94A41EFFEFB6
:1030D000EF1AFF0A2FEF621A720AE6CF0E94381A1F
:1030E00046C084E08A8343C0EA80FB80FE24EF244C
:1030F000FE24AC80B12C3801C70187969301201BB8
:10310000310B2A153B0598F530EFE316F10428F44E
:103110000E94961EF301848302C0F3011482FFEF24
:10312000EF1AFF0A2FEF621A720AE6CFEA80FB80DD
:10313000FE24EF24FE24AC80B12C3801C701879611
:103140009301201B310B2A153B0588F430EFE31661
:10315000F10420F4F30164810E94A41EFFEFEF1A32
:10316000FF0A2FEF621A720AE9CF8FEF89838091ED
:103170008701843009F038CD8091E9008F7020916B
:10318000EC00922F917020FD90E8F92EF82A82E051
:103190008093E9008091E80080FF0CC040E050E09F
:1031A00060E270E0C8010E94340E8091E8008E77E2
:1031B0008093E8008F2D8F708093E90015CD59BC66
:1031C00089BC09B400FEFDCF8091D8008F7D80932B
:1031D000D8008091E00082608093E0008091E00060
:1031E00081FDFCCF0E94231D04CD86E290E00E9469
:1031F000961E1B821C821D82FECE2D32314008F0AD
:10320000BACDF8CD2D32314008F00BCE49CE1F9209
:103210000F920FB60F9211248F939F93AF93BF938A
:1032200080911A02811113C08091590190915A0125
:10323000A0915B01B0915C014196A11DB11D8093ED
:10324000590190935A01A0935B01B0935C01BF9127
:10325000AF919F918F910F900FBE0F901F90189577
:10326000209100012223C9F020915D0127FF15C0A4
:10327000262F2695269526952E31C8F4FC01E20FBF
:10328000F11D677081E090E001C0880F6A95EAF750
:1032900080959281892382830895FC01069622817C
:1032A000621301C012823196E817F907C1F7089539
:1032B000209100012223C1F020915D0127FF14C05D
:1032C000262F2695269526952E3130F5FC01E20F06
:1032D000F11D677081E090E001C0880F6A95EAF700
:1032E0009281892B82830895FC0132962FEF30E082
:1032F0004191641789F02F3F19F4411101C0232F28
:103300003F5F3630A9F72F3F39F0FC01E20FF11D86
:1033100027FDFA956283089508952091180230914F
:1033200019022817390771F0909319028093180237
:10333000E0911602F0911702309721F00084F18598
:10334000E02D099408952091140230911502281758
:10335000390771F09093150280931402E0911602E0
:10336000F0911702309721F00680F781E02D099443
:103370000895E0911602F0911702309721F0019024
:10338000F081E02D099480E008950F931F93CF936F
:10339000DF93C42FD22FFC0182818823C9F0409390
:1033A00013020E94380F909312028093110280E260
:1033B0008C0F883008F057C0C77081E001C0880FBB
:1033C000CA95EAF7DF91CF911F910F910C94431D9D
:1033D00080911302481330C0809111029091120223
:1033E0000E94290F883C910538F510E21D0FCD177A
:1033F000B9F080E28C0F883040F4C77081E001C0E2
:10340000880FCA95EAF70E94381D183028F581E028
:103410009D2F977001C0880F9A95EAF70E94431D6F
:10342000802F0E94781E1830F0F4D77081E001C020
:10343000880FDA95EAF70AC080E28C0F883098F49A
:10344000C77081E001C0880FCA95EAF7DF91CF917C
:103450001F910F910C94381D802FDF91CF911F91F8
:103460000F910C94781EDF91CF911F910F910895C9
:10347000CF93DF93C7E1D1E060E0CE010E94A41EAC
:103480002196C11584E0D807B9F7DF91CF9108954F
:10349000CF92DF92EF92FF920F931F93CF93DF9320
:1034A000C0E0D0E08E01045C1F4F6E018CE0C80EBE
:1034B000D11CFE01EB57FC4FE590F4906F2DCE012F
:1034C00087960E94A41E6E2DCE0188960E94A41E8F
:1034D0002296CC15DD0569F70C171D0731F7E801B9
:1034E000003F1105F9F6DF91CF911F910F91FF90E9
:1034F000EF90DF90CF9008950F931F93CF93DF93BA
:10350000C42FD0E0CC0FDD1F2CE0629FC00DD11D79
:1035100011243CE3839FC00DD11D1124CE01879659
:103520000E94961E082F10E0102F0027CE018896CB
:103530000E94961E9801282BC901DF91CF911F91FF
:103540000F910895462F843038F4753028F4663092
:1035500018F4672F0C947C1A80E090E00895CF93C4
:10356000C82F811102C06FEF01C061E283E290E0D9
:103570000E94A41EC11102C06FEF01C060E184E28D
:1035800090E00E94A41EC11102C06FEF01C064E070
:1035900085E290E0CF910C94A41E80E00E94AF1AC7
:1035A00060E086E290E00E94A41E0E94481A0E94F9
:1035B000381A81E00C94AF1A83E290E00E94961EC4
:1035C000813281F484E290E00E94961E803151F4B1
:1035D00085E290E00E94961E91E0843009F090E030
:1035E000892F01C080E0817008950E94380F2091DA
:1035F0000D02211104C020910E02222321F090938C
:103600000A028093090220910F02211104C0209127
:103610001002222321F09093080280930702E09188
:103620001602F0911702309749F082E080930B0266
:103630000480F581E02D8BE092E009940895803FAD
:1036400039F490910E0297FF35C010920E0259C0C6
:10365000813F29F490910E021916BCF32BC0909172
:103660000D02823F29F497FF25C010920D0249C038
:10367000833F19F41916CCF31DC090910F02893FB6
:1036800029F41916BCF410920F023BC08A3F19F4BA
:1036900097FF10C0F8CF8B3F39F49091100297FF3D
:1036A00009C0109210022DC08C3F21F4909110029D
:1036B0001916BCF39CE0980F953080F421E030E0BF
:1036C000A90102C0440F551F9A95E2F7CA018095DF
:1036D00090910C02892380930C0213C08D3F21F43A
:1036E000809106028E7F0BC08E3F21F480910602EE
:1036F0008D7F05C08F3F29F4809106028B7F8093D8
:10370000060280910D02811106C080910E02811186
:1037100002C01092050280910F02811106C08091B3
:103720001002811102C010920402089580910602D5
:1037300080FD16C081FD16C082FD18C08091040274
:10374000882391F0883290F428E0829FC0011124F0
:1037500068E270E00E94D81E862F672B29F007C010
:1037600082E0089584E0089581E0089588E0089556
:103770008091060280FD14C081FD14C082FD16C038
:1037800080910502882381F0843180F422E3829FB6
:10379000C001112464E170E00E94D81E862F0895B4
:1037A0008CE0089589E1089585E0089582E3089505
:1037B000803F21F40E94B81B819504C0813F29F409
:1037C0000E94B81B80930E020895823F21F40E944C
:1037D000B81B819504C0833F29F40E94B81B8093D5
:1037E0000D020895893F19F40E94961B05C08A3F77
:1037F00031F40E94961B819580930F0208958B3FB0
:1038000021F40E94961B819504C08C3F29F40E94EC
:10381000961B8093100208959CE0980F953078F4E1
:1038200021E030E0A90102C0440F551F9A95E2F74C
:10383000CA0190910C02892B80930C0208958D3F50
:1038400021F48091060281600BC08E3F21F48091AB
:103850000602826005C08F3F29F4809106028460D1
:1038600080930602089580E090E00E94A31980E012
:1038700090E00E948D191092EC011092EB010E94D1
:103880008212EBE0F2E086E0DF011D928A95E9F713
:103890001092050210920402109206020C94F51A7E
:1038A000CF92DF92FF920F931F93CF93DF936C0120
:1038B000009191018091EF01082BC7E0D0E010E06A
:1038C000C8010C2E02C0959587950A94E2F780FDF9
:1038D00004C02197A8F7F12C09C0FC2EB6018C2F4B
:1038E0000E94A21A0E946710019799F38F2DDF9111
:1038F000CF911F910F91FF90DF90CF900895292FC6
:10390000220F920F990F890F682F6695669566951D
:10391000982F977083E0689FB001112440E050E039
:1039200080E0FB01E40FF51FE55EFD4F208130E0F4
:10393000092E02C0369527950A94E2F721703327A5
:10394000042E01C0220F0A94EAF7822B4F5F5F4FCB
:103950004330510531F70895292F220F920F990F07
:10396000890FE82FE695E695E695877051E001C04E
:10397000550F8A95EAF783E0E89FF0011124E55E90
:10398000FD4F20E030E070E04081CB01022E02C00C
:10399000969587950A94E2F781708195842785230F
:1039A000842781932F5F3F4F2330310569F70895B6
:1039B000809391010C94331C21E030E001C0220F70
:1039C0008A95EAF720958091910182230C94D81C66
:1039D00021E030E001C0220F8A95EAF78091910141
:1039E000822B0C94D81C8093EF010C94331CFC01A7
:1039F000808191810E947513292F2F70E92FE29504
:103A0000EF704E2F50E0FA013297EE30F105B8F426
:103A1000E158FF4F0C94EC1E803F99F018F4883E5B
:103A200070F40FC0843F59F40CC0883E50F0813FC1
:103A300031F407C0822F869586958695089580E09B
:103A4000089581E008951092ED018091000188238E
:103A500031F080915D0187FF02C08EE101C086E0F8
:103A6000E4E9F1E0DF011D928A95E9F70C94331C3B
:103A7000882341F080959091ED0189238093ED0199
:103A80000C9482120895882339F09091ED01892BCE
:103A90008093ED010C9482120895882309F463C089
:103AA000823869F40E94B91981FF5DC069E382E937
:103AB00091E00E9458190E94821269E30EC0833877
:103AC00091F40E94B91980FF4EC063E582E991E04C
:103AD0000E9458190E94821263E582E991E00E94D7
:103AE00030190C948212843869F40E94B91982FF4B
:103AF0003AC067E482E991E00E9458190E9482125C
:103B000067E4EBCF9CEF980F913A10F4682FE5CF64
:103B100090E2980F983088F4877021E030E0A90196
:103B200002C0440F551F8A95E2F7CA018095909113
:103B3000ED0189238093ED01D4CF9BE5980F93305D
:103B400020F480E090E00C94A31998E5980F973149
:103B500020F480E090E00C948D19803F20F00E94CA
:103B60001F1B0C94F51A0895CF93882309F4BEC047
:103B7000C82F8238B1F40E94B91981FDB7C069E33A
:103B800082E991E00E9458190E9482122FEF81EE83
:103B900094E0215080409040E1F700C0000069E3CC
:103BA00017C08338E1F40E94B91980FD9FC063E516
:103BB00082E991E00E9458190E9482122FEF81EE53
:103BC00094E0215080409040E1F700C0000063E5A0
:103BD00082E991E00E943019CF910C9482128438CE
:103BE000B1F40E94B91982FD81C067E482E991E0D5
:103BF0000E9458190E9482122FEF81EE94E021500A
:103C000080409040E1F700C0000067E4E1CF8CEF16
:103C10008C0F813AC0F5809100018823E1F08091FA
:103C20005D0187FF18C0EC2FE695E695E695F0E07C
:103C3000EE56FE4F8281282F30E04C2F477081E0F6
:103C400090E002C0880F991F4A95E2F782239323E0
:103C5000892B61F412C0E4E9F1E08AE991E0219155
:103C6000C21721F08E179F07D1F707C06C2F82E98A
:103C700091E00E9430190E9482126C2F82E991E03B
:103C80000E945819A9CF80E28C0F883068F4C77061
:103C900081E090E001C0880FCA95EAF79091ED01AC
:103CA000892B8093ED0198CFEBE5EC0FE33040F4E6
:103CB000F0E0E65EFE4F808190E0CF910C94A31976
:103CC000E8E5EC0FE73150F4F0E0EE0FFF1FE35EA4
:103CD000FE4F80819181CF910C948D19C03F30F0BF
:103CE0008C2F0E94D81BCF910C94F51ACF91089578
:103CF0001F93CF93DF93182F893319F0C0E0D0E0E2
:103D000002C0C0E5D0E0812F0E94B41D209741F091
:103D10008FE99FE00197F1F700C000002197F6CFEF
:103D2000812FDF91CF911F910C944D1DF999FECFFA
:103D300092BD81BDF89A992780B50895A8E1B0E0B9
:103D400042E050E00C94CA1E262FF999FECF92BD96
:103D500081BDF89A019700B4021639F01FBA20BD50
:103D60000FB6F894FA9AF99A0FBE08950396272F82
:103D70000E94A51E0E94A41E252F0E94A51E242F6E
:103D80000C94A51E0196272F0E94A51E0C94A41E1C
:103D9000DC01CB01FC01F999FECF06C0F2BDE1BD0B
:103DA000F89A319600B40D9241505040B8F70895FA
:103DB00097FB072E16F4009407D077FD09D00E94D8
:103DC000F91E07FC05D03EF4909581959F4F08950C
:103DD000709561957F4F0895EE0FFF1F0590F49148
:103DE000E02D099469279627692778278727782760
:103DF0000895AA1BBB1B51E107C0AA1FBB1FA61732
:103E0000B70710F0A61BB70B881F991F5A95A9F783
:103E100080959095BC01CD010895FB01DC0104C0A3
:103E20008D910190801921F441505040C8F7881BB2
:083E3000990B0895F894FFCFEF
:103E3800018809B10E920E8E0E8A0E4022B6A20299
:103E48008002CA01F4020D032D03818283E200E996
:103E580000EA00B500B600B700CD008301CC008AA7
:103E6800019201940121022302240225022602273D
:103E7800022A02B300B4006F0070009197C634356F
:063E8800F5F6F7319490FD
:00000001FF
